:10035F000A0A0A0A0A0A0A0A0A0A0A0A5F5F7C7C60
:10036F005F5F7C7C5F5F7C7C5F5F7C7C5F5F7C7CA6
:10037F005F5F7C7C5F5F7C7C5F5F7C7C5F5F7C7C96
:10038F005F5F7C7C5F5F7C7C5F5F7C7C5F5F7C7C86
:10039F005F5F7C7C5F5F0A2A2A090909090909093D
:1003AF002A2A0A2A2A090909090909092A2A0A00EF
:1003BF002A2A0909202020697220737461747573C9
:1003CF0020202020202578202020202020202020C1
:1003DF002020202020202020202020202A2A0A0030
:1003EF002A2A0909202020697220636F6D6D616EC2
:1003FF00642020202025782020202020202020204D
:10040F002020202020202020202020202A2A0A00FF
:10041F002A2A090920202069722064617461202032
:10042F002020202020257820202020202020202060
:10043F002020202020202020202020202A2A0A2AA5
:10044F002A090909090909092A2A0A2A2A09090967
:10045F00090909092A2A0A00005F5F7C7C5F5F7C1B
:10046F007C5F5F7C7C5F5F7C7C5F5F7C7C5F5F7CA5
:10047F007C5F5F7C7C5F5F7C7C5F5F7C7C5F5F7C95
:10048F007C5F5F7C7C5F5F7C7C5F5F7C7C5F5F7C85
:06049F007C5F5F200000FD
:0E05FF00759850438920758DFDD28ED29922B9
:08062F008F993099FDC2992258
:07063700EF2430FF02062F43
:090625003098FDAF99C2987E00E7
:01062E0022A9
:1005AD00E4FF74112FF8E66426601F3098FD741176
:1005BD002FF8A699C29874112FF8E6FE6426600AEA
:0A05CD008E993099FDC2990F80D875
:0105D7002201
:1005330012060DE4F50E120625E50E25E02408F853
:10054300A60608A607050EE50EC3940340E81205A8
:10055300FF7BFF7A03795F1200657BFF7A0379BF24
:100563008508258509261200657BFF7A0379EF85C7
:100573000A25850B261200657BFF7A04791F850CFB
:1005830025850D261200657BFF7A047968120065C4
:10059300E50D64FA450C70036390FFE4F50F050F56
:0A05A300E50FB464F9850D80808631
:0C060D00758922758DE8759850D28E22F8
:03000000020619DC
:0C061900787FE4F6D8FD758135020533CA
:10000300E5312425F8E605312278223007027825E8
:10001300E475F0011204FD0204A52000EB7F2ED24B
:10002300008018EF540F2490D43440D4FF30040BD5
:10003300EF24BFB41A0050032461FFE532600215B8
:10004300320535E5357002053430070D7822E47545
:10005300F0011204FDEF0204EB0205D87403D2078A
:100063008003E4C207F5318B228A238924E4F53225
:10007300F534F535E53260077F2012003E80F575D3
:1000830033FFC201C200C202C203C205C206C208D4
:1000930012000CFF700D3007057F0012004FAF35C3
:1000A300AE3422B4255FC2D5C20412000CFF24D0A3
:1000B300B40A00501A75F00A783230D50508B6FF35
:1000C3000106C6A426F620D5047002D20380D924E3
:1000D300CFB41A00EF5004C2E5D20402024FD2019A
:1000E30080C6D20080C0D20280BCD2D580BAD205ED
:1000F30080B47F2012003E2002077401B532004015
:10010300F1120003FF12003E020077D208D20680EC
:1001130095120003FB120003FA120003F94A4B7015
:100123000679207A037BFF20022EE532602A7E00C7
:100133008E827583001204BE60060EEE653370F086
:10014300C2D5EBC0E0EAC0E0E9C0E0EE120296D00F
:10015300E0F9D0E0FAD0E0FB1204A5FF60AAEBC0FF
:10016300E0EAC0E0E9C0E012003ED0E02401F9D0AB
:10017300E03400FAD0E0FBE5330460DCD533D9800A
:10018300877BFF7A027992D202809C791080027970
:1001930008C206C2088008D2D5790A8004790AC247
:1001A300D5E533047002F533E4FAFDFEFF120003D4
:1001B300FC7B08200113120003FD7B1030000A12A0
:1001C3000003FE120003FF7B20EC3382D592D5504F
:1001D30013C3E43000069FFFE49EFEE42001039D69
:1001E300FDE49CFCE4CBF8C201EC700CCFCECDCC8B
:1001F300E824F8F870F38017C3EF33FFEE33FEED16
:1002030033FDEC33FCEB33FB994002FB0FD8E9EBF6
:10021300300105F8D0E0C448B201C0E00AEC4D4E0D
:100223004F78207B0070C2EAB5330040BCC0E012B7
:100233000298D0F0D0E0200104C4C0E0C4B201C0F1
:10024300F0120027D0F0D5F0EB02007712050D0174
:100253001453018E5800E54C00E14201924F019A7C
:0F02630044019A4900FA4301A0550184460184E1
:100272004501844703405000E92D00ED2E01102B6B
:1002820000F123010E2003292A00A94800000108D9
:100292003F3F3F00790AA2D5200314300509B91067
:1002A200020404B9080104A2D52006025001042068
:1002B20002689202B532005034C0E07F2030031948
:1002C2007F30A20272067205500F1202EFC202C202
:1002D20006C205C2087F30800F300503E9C0E01274
:1002E200003E300503D0E0F9D0E0B532CC3005173E
:1002F2007F30B9100C12003E7F583004077F78809F
:1003020003B9080312003E3002057F2D02003E7F32
:10031200202008F87F2B2006F322920280CF286E3D
:10032200756C6C2900D2011200033001F8C2017809
:100332003230D50108F60200A92D50434958120067
:10034200032403B405004001E490033B9312002F01
:0D035200743A12002FD20375320402018E9E
:1004A500BB010689828A83E0225002E722BBFE0255
:0904B500E32289828A83E4932288
:1004BE00BB010CE58229F582E5833AF583E02250F3
:1004CE0006E92582F8E622BBFE06E92582F8E2223D
:0D04DE00E58229F582E5833AF583E4932257
:1004EB00BB010689828A83F0225002F722BBFE01F0
:0204FB00F322EA
:1004FD00FAE6FB0808E6F925F0F618E6CA3AF62200
:10050D00D083D082F8E4937012740193700DA3A37D
:10051D0093F8740193F5828883E473740293686091
:06052D00EFA3A3A380DF91
:1005D800EFB40A07740D1205E3740A309811A8994C
:1005E800B8130CC2983098FDA899C298B811F63083
:0705F80099FDC299F599225B
:00000001FF
